8=FIX.4.2|9=84|35=A|34=1|49=OPS_CANDIDATE_3_8639|52=20240823-04:54:00.986|56=DTL|98=0|108=30|141=Y|10=179|8=FIX.4.2|9=124|35=D|34=2|49=OPS_CANDIDATE_3_8639|52=20240823-04:54:01.211|56=DTL|11=11343|21=1|38=64|40=2|44=124.059337448281|54=1|55=MSFT|10=122|8=FIX.4.2|9=103|35=F|34=3|49=OPS_CANDIDATE_3_8639|52=20240823-04:54:01.513|56=DTL|11=44231|38=64|41=11343|54=1|55=MSFT|10=153|8=FIX.4.2|9=104|35=D|34=4|49=OPS_CANDIDATE_3_8639|52=20240823-04:54:01.513|56=DTL|11=81284|21=1|38=96|40=1|54=2|55=MSFT|10=174|8=FIX.4.2|9=103|35=D|34=5|49=OPS_CANDIDATE_3_8639|52=20240823-04:54:01.814|56=DTL|11=1584|21=1|38=26|40=1|54=1|55=MSFT|10=117|8=FIX.4.2|9=103|35=F|34=6|49=OPS_CANDIDATE_3_8639|52=20240823-04:54:02.115|56=DTL|11=42438|38=96|41=81284|54=2|55=MSFT|10=179|8=FIX.4.2|9=103|35=D|34=7|49=OPS_CANDIDATE_3_8639|52=20240823-04:54:02.116|56=DTL|11=59781|21=1|38=36|40=1|54=2|55=BAC|10=061|8=FIX.4.2|9=102|35=F|34=8|49=OPS_CANDIDATE_3_8639|52=20240823-04:54:02.417|56=DTL|11=42101|38=36|41=59781|54=2|55=BAC|10=057|8=FIX.4.2|9=122|35=D|34=9|49=OPS_CANDIDATE_3_8639|52=20240823-04:54:02.417|56=DTL|11=8207|21=1|38=85|40=2|44=118.681857636138|54=1|55=BAC|10=247|8=FIX.4.2|9=105|35=D|34=10|49=OPS_CANDIDATE_3_8639|52=20240823-04:54:02.718|56=DTL|11=58305|21=1|38=19|40=1|54=2|55=MSFT|10=221|8=FIX.4.2|9=124|35=D|34=11|49=OPS_CANDIDATE_3_8639|52=20240823-04:54:03.019|56=DTL|11=26806|21=1|38=98|40=2|44=147.68094518931|54=2|55=MSFT|10=153|8=FIX.4.2|9=124|35=D|34=12|49=OPS_CANDIDATE_3_8639|52=20240823-04:54:03.321|56=DTL|11=1233|21=1|38=68|40=2|44=117.677534444502|54=1|55=MSFT|10=127|8=FIX.4.2|9=125|35=D|34=13|49=OPS_CANDIDATE_3_8639|52=20240823-04:54:03.622|56=DTL|11=74440|21=1|38=31|40=2|44=143.602988764501|54=2|55=MSFT|10=186|8=FIX.4.2|9=105|35=D|34=14|49=OPS_CANDIDATE_3_8639|52=20240823-04:54:03.924|56=DTL|11=40557|21=1|38=43|40=1|54=2|55=AAPL|10=194|8=FIX.4.2|9=125|35=D|34=15|49=OPS_CANDIDATE_3_8639|52=20240823-04:54:04.225|56=DTL|11=18827|21=1|38=12|40=2|44=134.839031422548|54=1|55=AAPL|10=158|8=FIX.4.2|9=104|35=D|34=16|49=OPS_CANDIDATE_3_8639|52=20240823-04:54:04.525|56=DTL|11=48816|21=1|38=59|40=1|54=1|55=BAC|10=117|8=FIX.4.2|9=124|35=D|34=17|49=OPS_CANDIDATE_3_8639|52=20240823-04:54:04.826|56=DTL|11=71971|21=1|38=32|40=2|44=123.235654713955|54=2|55=BAC|10=084|8=FIX.4.2|9=105|35=D|34=18|49=OPS_CANDIDATE_3_8639|52=20240823-04:54:05.127|56=DTL|11=91297|21=1|38=12|40=1|54=2|55=AAPL|10=198|8=FIX.4.2|9=104|35=D|34=19|49=OPS_CANDIDATE_3_8639|52=20240823-04:54:05.428|56=DTL|11=38924|21=1|38=94|40=1|54=2|55=BAC|10=122|8=FIX.4.2|9=125|35=D|34=20|49=OPS_CANDIDATE_3_8639|52=20240823-04:54:05.729|56=DTL|11=10894|21=1|38=72|40=2|44=147.258175183422|54=2|55=AAPL|10=170|8=FIX.4.2|9=105|35=D|34=21|49=OPS_CANDIDATE_3_8639|52=20240823-04:54:06.030|56=DTL|11=61461|21=1|38=23|40=1|54=2|55=MSFT|10=206|8=FIX.4.2|9=125|35=D|34=22|49=OPS_CANDIDATE_3_8639|52=20240823-04:54:06.331|56=DTL|11=68806|21=1|38=53|40=2|44=124.456930705709|54=1|55=MSFT|10=196|8=FIX.4.2|9=103|35=F|34=23|49=OPS_CANDIDATE_3_8639|52=20240823-04:54:06.632|56=DTL|11=56983|38=32|41=71971|54=2|55=BAC|10=120|8=FIX.4.2|9=105|35=D|34=24|49=OPS_CANDIDATE_3_8639|52=20240823-04:54:06.633|56=DTL|11=80760|21=1|38=77|40=1|54=2|55=MSFT|10=230|8=FIX.4.2|9=125|35=D|34=25|49=OPS_CANDIDATE_3_8639|52=20240823-04:54:06.934|56=DTL|11=99227|21=1|38=72|40=2|44=105.107785002055|54=2|55=MSFT|10=195|8=FIX.4.2|9=125|35=D|34=26|49=OPS_CANDIDATE_3_8639|52=20240823-04:54:07.235|56=DTL|11=11196|21=1|38=54|40=2|44=134.185610762048|54=2|55=MSFT|10=190|8=FIX.4.2|9=105|35=D|34=27|49=OPS_CANDIDATE_3_8639|52=20240823-04:54:07.536|56=DTL|11=43711|21=1|38=98|40=1|54=2|55=AAPL|10=206|8=FIX.4.2|9=105|35=D|34=28|49=OPS_CANDIDATE_3_8639|52=20240823-04:54:07.836|56=DTL|11=72035|21=1|38=81|40=1|54=2|55=AAPL|10=203|8=FIX.4.2|9=125|35=D|34=29|49=OPS_CANDIDATE_3_8639|52=20240823-04:54:08.137|56=DTL|11=94480|21=1|38=37|40=2|44=107.720452057314|54=2|55=MSFT|10=195|8=FIX.4.2|9=125|35=D|34=30|49=OPS_CANDIDATE_3_8639|52=20240823-04:54:08.438|56=DTL|11=56522|21=1|38=42|40=2|44=128.380619642143|54=2|55=MSFT|10=192|8=FIX.4.2|9=124|35=D|34=31|49=OPS_CANDIDATE_3_8639|52=20240823-04:54:08.739|56=DTL|11=81403|21=1|38=18|40=2|44=141.832705202681|54=2|55=BAC|10=071|8=FIX.4.2|9=124|35=D|34=32|49=OPS_CANDIDATE_3_8639|52=20240823-04:56:25.576|56=DTL|11=51626|21=1|38=89|40=2|44=121.811004597419|54=1|55=BAC|10=086|8=FIX.4.2|9=124|35=D|34=33|49=OPS_CANDIDATE_3_8639|52=20240823-04:56:25.877|56=DTL|11=55996|21=1|38=20|40=2|44=143.354815300802|54=1|55=BAC|10=084|8=FIX.4.2|9=79|35=A|34=34|49=OPS_CANDIDATE_3_8639|52=20240823-04:56:25.948|56=DTL|98=0|108=30|10=199|8=FIX.4.2|9=79|35=A|34=35|49=OPS_CANDIDATE_3_8639|52=20240823-04:56:25.949|56=DTL|98=0|108=30|10=201|8=FIX.4.2|9=117|35=5|34=36|49=OPS_CANDIDATE_3_8639|52=20240823-04:56:25.976|56=DTL|58=MsgSeqNum too low, expecting 32 but received 1|10=152|8=FIX.4.2|9=103|35=F|34=37|49=OPS_CANDIDATE_3_8639|52=20240823-04:56:26.178|56=DTL|11=63457|38=89|41=51626|54=1|55=BAC|10=134|8=FIX.4.2|9=125|35=D|34=38|49=OPS_CANDIDATE_3_8639|52=20240823-04:56:26.179|56=DTL|11=97348|21=1|38=18|40=2|44=149.982947605226|54=2|55=MSFT|10=234|8=FIX.4.2|9=124|35=D|34=39|49=OPS_CANDIDATE_3_8639|52=20240823-04:56:26.480|56=DTL|11=43656|21=1|38=82|40=2|44=121.503652996024|54=1|55=BAC|10=087|8=FIX.4.2|9=124|35=D|34=40|49=OPS_CANDIDATE_3_8639|52=20240823-04:56:26.781|56=DTL|11=12335|21=1|38=12|40=2|44=133.86591115478|54=2|55=AAPL|10=114|8=FIX.4.2|9=124|35=D|34=41|49=OPS_CANDIDATE_3_8639|52=20240823-04:56:27.082|56=DTL|11=1261|21=1|38=100|40=2|44=146.230535893174|54=1|55=BAC|10=062|8=FIX.4.2|9=105|35=D|34=42|49=OPS_CANDIDATE_3_8639|52=20240823-04:56:27.382|56=DTL|11=67477|21=1|38=66|40=1|54=1|55=MSFT|10=243|8=FIX.4.2|9=105|35=D|34=43|49=OPS_CANDIDATE_3_8639|52=20240823-04:56:27.683|56=DTL|11=50070|21=1|38=52|40=1|54=2|55=AAPL|10=197|8=FIX.4.2|9=103|35=F|34=44|49=OPS_CANDIDATE_3_8639|52=20240823-04:56:27.985|56=DTL|11=88157|38=82|41=43656|54=1|55=BAC|10=140|8=FIX.4.2|9=105|35=D|34=45|49=OPS_CANDIDATE_3_8639|52=20240823-04:56:27.985|56=DTL|11=32433|21=1|38=98|40=1|54=1|55=AAPL|10=216|8=FIX.4.2|9=104|35=F|34=46|49=OPS_CANDIDATE_3_8639|52=20240823-04:56:28.286|56=DTL|11=85989|38=18|41=97348|54=2|55=MSFT|10=015|8=FIX.4.2|9=125|35=D|34=47|49=OPS_CANDIDATE_3_8639|52=20240823-04:56:28.287|56=DTL|11=14297|21=1|38=63|40=2|44=117.656542012495|54=2|55=AAPL|10=184|8=FIX.4.2|9=105|35=D|34=48|49=OPS_CANDIDATE_3_8639|52=20240823-04:56:28.588|56=DTL|11=22136|21=1|38=53|40=1|54=2|55=MSFT|10=238|8=FIX.4.2|9=124|35=D|34=49|49=OPS_CANDIDATE_3_8639|52=20240823-04:56:28.889|56=DTL|11=4125|21=1|38=20|40=2|44=102.592045781636|54=1|55=AAPL|10=127|8=FIX.4.2|9=105|35=D|34=50|49=OPS_CANDIDATE_3_8639|52=20240823-04:56:29.190|56=DTL|11=22971|21=1|38=34|40=1|54=2|55=AAPL|10=199|8=FIX.4.2|9=123|35=D|34=51|49=OPS_CANDIDATE_3_8639|52=20240823-04:56:29.491|56=DTL|11=1868|21=1|38=32|40=2|44=129.072043097712|54=2|55=BAC|10=031|8=FIX.4.2|9=124|35=D|34=52|49=OPS_CANDIDATE_3_8639|52=20240823-04:56:29.792|56=DTL|11=92752|21=1|38=98|40=2|44=116.716492196434|54=2|55=BAC|10=109|8=FIX.4.2|9=124|35=D|34=53|49=OPS_CANDIDATE_3_8639|52=20240823-04:56:30.093|56=DTL|11=66801|21=1|38=46|40=2|44=133.891777061139|54=1|55=BAC|10=086|8=FIX.4.2|9=105|35=D|34=54|49=OPS_CANDIDATE_3_8639|52=20240823-04:56:30.394|56=DTL|11=16765|21=1|38=59|40=1|54=1|55=MSFT|10=239|8=FIX.4.2|9=104|35=F|34=55|49=OPS_CANDIDATE_3_8639|52=20240823-04:56:30.695|56=DTL|11=88275|38=12|41=12335|54=2|55=AAPL|10=208|8=FIX.4.2|9=124|35=D|34=56|49=OPS_CANDIDATE_3_8639|52=20240823-04:56:30.696|56=DTL|11=4951|21=1|38=31|40=2|44=117.338624453834|54=2|55=MSFT|10=155|8=FIX.4.2|9=104|35=D|34=57|49=OPS_CANDIDATE_3_8639|52=20240823-04:56:30.996|56=DTL|11=64908|21=1|38=59|40=1|54=1|55=BAC|10=135|8=FIX.4.2|9=105|35=D|34=58|49=OPS_CANDIDATE_3_8639|52=20240823-04:56:31.297|56=DTL|11=12078|21=1|38=80|40=1|54=2|55=AAPL|10=206|8=FIX.4.2|9=104|35=D|34=59|49=OPS_CANDIDATE_3_8639|52=20240823-04:56:31.599|56=DTL|11=27196|21=1|38=58|40=1|54=2|55=BAC|10=135|8=FIX.4.2|9=103|35=F|34=60|49=OPS_CANDIDATE_3_8639|52=20240823-04:56:31.899|56=DTL|11=51879|38=31|41=4951|54=2|55=MSFT|10=196|8=FIX.4.2|9=124|35=D|34=61|49=OPS_CANDIDATE_3_8639|52=20240823-04:56:31.900|56=DTL|11=99313|21=1|38=20|40=2|44=147.195744026415|54=2|55=BAC|10=074|8=FIX.4.2|9=105|35=D|34=62|49=OPS_CANDIDATE_3_8639|52=20240823-04:56:32.201|56=DTL|11=58466|21=1|38=72|40=1|54=1|55=AAPL|10=198|8=FIX.4.2|9=105|35=D|34=63|49=OPS_CANDIDATE_3_8639|52=20240823-04:56:32.502|56=DTL|11=96288|21=1|38=25|40=1|54=1|55=MSFT|10=233|8=FIX.4.2|9=104|35=D|34=64|49=OPS_CANDIDATE_3_8639|52=20240823-04:56:32.803|56=DTL|11=6030|21=1|38=50|40=1|54=1|55=AAPL|10=135|8=FIX.4.2|9=124|35=D|34=65|49=OPS_CANDIDATE_3_8639|52=20240823-04:56:33.104|56=DTL|11=93128|21=1|38=63|40=2|44=135.11135372742|54=1|55=AAPL|10=105|8=FIX.4.2|9=104|35=D|34=66|49=OPS_CANDIDATE_3_8639|52=20240823-04:56:33.405|56=DTL|11=49808|21=1|38=57|40=1|54=1|55=BAC|10=123|8=FIX.4.2|9=125|35=D|34=67|49=OPS_CANDIDATE_3_8639|52=20240823-04:56:33.705|56=DTL|11=35498|21=1|38=80|40=2|44=107.408795829498|54=2|55=MSFT|10=233|8=FIX.4.2|9=105|35=D|34=68|49=OPS_CANDIDATE_3_8639|52=20240823-04:56:34.007|56=DTL|11=81963|21=1|38=21|40=1|54=2|55=MSFT|10=231|8=FIX.4.2|9=125|35=D|34=69|49=OPS_CANDIDATE_3_8639|52=20240823-04:56:34.308|56=DTL|11=86146|21=1|38=38|40=2|44=117.167890631151|54=1|55=MSFT|10=209|8=FIX.4.2|9=123|35=D|34=70|49=OPS_CANDIDATE_3_8639|52=20240823-04:56:34.608|56=DTL|11=34322|21=1|38=88|40=2|44=141.93767410677|54=2|55=BAC|10=039|8=FIX.4.2|9=104|35=D|34=71|49=OPS_CANDIDATE_3_8639|52=20240823-04:56:34.909|56=DTL|11=79548|21=1|38=71|40=1|54=2|55=BAC|10=130|8=FIX.4.2|9=104|35=F|34=72|49=OPS_CANDIDATE_3_8639|52=20240823-04:56:35.210|56=DTL|11=63170|38=52|41=50070|54=2|55=AAPL|10=184|8=FIX.4.2|9=125|35=D|34=73|49=OPS_CANDIDATE_3_8639|52=20240823-04:56:35.211|56=DTL|11=45518|21=1|38=31|40=2|44=124.053663304843|54=1|55=MSFT|10=184|8=FIX.4.2|9=125|35=D|34=74|49=OPS_CANDIDATE_3_8639|52=20240823-04:56:35.512|56=DTL|11=95624|21=1|38=74|40=2|44=117.513515827479|54=2|55=AAPL|10=186|8=FIX.4.2|9=125|35=D|34=75|49=OPS_CANDIDATE_3_8639|52=20240823-04:56:35.813|56=DTL|11=60460|21=1|38=84|40=2|44=111.276746863689|54=2|55=AAPL|10=191|8=FIX.4.2|9=104|35=D|34=76|49=OPS_CANDIDATE_3_8639|52=20240823-04:56:55.405|56=DTL|11=36370|21=1|38=75|40=1|54=2|55=BAC|10=119|8=FIX.4.2|9=79|35=A|34=77|49=OPS_CANDIDATE_3_8639|52=20240823-04:56:55.454|56=DTL|98=0|108=30|10=201|8=FIX.4.2|9=117|35=5|34=78|49=OPS_CANDIDATE_3_8639|52=20240823-04:56:55.481|56=DTL|58=MsgSeqNum too low, expecting 32 but received 1|10=152|8=FIX.4.2|9=79|35=A|34=79|49=OPS_CANDIDATE_3_8639|52=20240823-04:56:55.482|56=DTL|98=0|108=30|10=204|8=FIX.4.2|9=103|35=D|34=80|49=OPS_CANDIDATE_3_8639|52=20240823-04:56:55.706|56=DTL|11=549|21=1|38=25|40=1|54=2|55=MSFT|10=131|8=FIX.4.2|9=125|35=D|34=81|49=OPS_CANDIDATE_3_8639|52=20240823-04:56:56.007|56=DTL|11=39591|21=1|38=34|40=2|44=114.761455963437|54=2|55=AAPL|10=183|8=FIX.4.2|9=105|35=D|34=82|49=OPS_CANDIDATE_3_8639|52=20240823-04:56:56.308|56=DTL|11=26161|21=1|38=84|40=1|54=1|55=AAPL|10=204|8=FIX.4.2|9=124|35=D|34=83|49=OPS_CANDIDATE_3_8639|52=20240823-04:56:56.609|56=DTL|11=8857|21=1|38=70|40=2|44=146.269461948273|54=1|55=AAPL|10=150|8=FIX.4.2|9=105|35=D|34=84|49=OPS_CANDIDATE_3_8639|52=20240823-04:56:56.910|56=DTL|11=76597|21=1|38=24|40=1|54=2|55=AAPL|10=218|8=FIX.4.2|9=105|35=D|34=85|49=OPS_CANDIDATE_3_8639|52=20240823-04:56:57.211|56=DTL|11=85375|21=1|38=55|40=1|54=2|55=MSFT|10=240|8=FIX.4.2|9=105|35=D|34=86|49=OPS_CANDIDATE_3_8639|52=20240823-04:56:57.513|56=DTL|11=12054|21=1|38=72|40=1|54=2|55=MSFT|10=229|8=FIX.4.2|9=125|35=D|34=87|49=OPS_CANDIDATE_3_8639|52=20240823-04:56:57.814|56=DTL|11=18617|21=1|38=11|40=2|44=143.305234229034|54=2|55=MSFT|10=194|8=FIX.4.2|9=125|35=D|34=88|49=OPS_CANDIDATE_3_8639|52=20240823-04:56:58.115|56=DTL|11=32479|21=1|38=82|40=2|44=130.282502182682|54=2|55=AAPL|10=177|8=FIX.4.2|9=124|35=D|34=89|49=OPS_CANDIDATE_3_8639|52=20240823-04:56:58.417|56=DTL|11=86905|21=1|38=77|40=2|44=113.621561289504|54=2|55=BAC|10=105|8=FIX.4.2|9=105|35=D|34=90|49=OPS_CANDIDATE_3_8639|52=20240823-04:56:58.717|56=DTL|11=88890|21=1|38=52|40=1|54=1|55=AAPL|10=221|8=FIX.4.2|9=104|35=D|34=91|49=OPS_CANDIDATE_3_8639|52=20240823-04:56:59.019|56=DTL|11=3679|21=1|38=59|40=1|54=1|55=AAPL|10=168|8=FIX.4.2|9=103|35=F|34=92|49=OPS_CANDIDATE_3_8639|52=20240823-04:56:59.320|56=DTL|11=88712|38=75|41=36370|54=2|55=BAC|10=126|8=FIX.4.2|9=125|35=D|34=93|49=OPS_CANDIDATE_3_8639|52=20240823-04:56:59.320|56=DTL|11=22213|21=1|38=69|40=2|44=142.548496392007|54=2|55=AAPL|10=176|8=FIX.4.2|9=104|35=D|34=94|49=OPS_CANDIDATE_3_8639|52=20240823-04:56:59.621|56=DTL|11=26275|21=1|38=98|40=1|54=1|55=BAC|10=130|8=FIX.4.2|9=124|35=D|34=95|49=OPS_CANDIDATE_3_8639|52=20240823-04:56:59.922|56=DTL|11=63090|21=1|38=32|40=2|44=120.161357132977|54=2|55=BAC|10=086|8=FIX.4.2|9=105|35=D|34=96|49=OPS_CANDIDATE_3_8639|52=20240823-04:57:00.223|56=DTL|11=65552|21=1|38=54|40=1|54=2|55=AAPL|10=200|8=FIX.4.2|9=123|35=D|34=97|49=OPS_CANDIDATE_3_8639|52=20240823-04:57:00.524|56=DTL|11=2699|21=1|38=98|40=2|44=129.779828081518|54=2|55=BAC|10=065|8=FIX.4.2|9=104|35=D|34=98|49=OPS_CANDIDATE_3_8639|52=20240823-04:57:00.825|56=DTL|11=21983|21=1|38=97|40=1|54=2|55=BAC|10=128|8=FIX.4.2|9=104|35=D|34=99|49=OPS_CANDIDATE_3_8639|52=20240823-04:57:01.126|56=DTL|11=22082|21=1|38=70|40=1|54=1|55=BAC|10=105|8=FIX.4.2|9=126|35=D|34=100|49=OPS_CANDIDATE_3_8639|52=20240823-04:57:01.427|56=DTL|11=61657|21=1|38=93|40=2|44=105.266501687241|54=1|55=AAPL|10=211|8=FIX.4.2|9=103|35=D|34=101|49=OPS_CANDIDATE_3_8639|52=20240823-04:57:01.728|56=DTL|11=137|21=1|38=58|40=1|54=2|55=BAC|10=052|8=FIX.4.2|9=106|35=D|34=102|49=OPS_CANDIDATE_3_8639|52=20240823-04:57:02.029|56=DTL|11=32650|21=1|38=56|40=1|54=2|55=MSFT|10=010|8=FIX.4.2|9=125|35=D|34=103|49=OPS_CANDIDATE_3_8639|52=20240823-04:57:02.330|56=DTL|11=8234|21=1|38=30|40=2|44=108.625119284545|54=1|55=MSFT|10=177|8=FIX.4.2|9=105|35=F|34=104|49=OPS_CANDIDATE_3_8639|52=20240823-04:57:02.631|56=DTL|11=48572|38=69|41=22213|54=2|55=AAPL|10=246|8=FIX.4.2|9=125|35=D|34=105|49=OPS_CANDIDATE_3_8639|52=20240823-04:57:02.632|56=DTL|11=23754|21=1|38=59|40=2|44=143.010239559032|54=2|55=BAC|10=118|8=FIX.4.2|9=106|35=D|34=106|49=OPS_CANDIDATE_3_8639|52=20240823-04:57:02.933|56=DTL|11=22205|21=1|38=87|40=1|54=1|55=AAPL|10=244|8=FIX.4.2|9=126|35=D|34=107|49=OPS_CANDIDATE_3_8639|52=20240823-04:57:03.234|56=DTL|11=74141|21=1|38=74|40=2|44=139.067835345372|54=2|55=AAPL|10=220|8=FIX.4.2|9=126|35=D|34=108|49=OPS_CANDIDATE_3_8639|52=20240823-04:57:03.535|56=DTL|11=11888|21=1|38=16|40=2|44=123.954662750935|54=2|55=AAPL|10=231|8=FIX.4.2|9=126|35=D|34=109|49=OPS_CANDIDATE_3_8639|52=20240823-04:57:03.836|56=DTL|11=45502|21=1|38=68|40=2|44=114.026996211025|54=1|55=AAPL|10=214|8=FIX.4.2|9=126|35=D|34=110|49=OPS_CANDIDATE_3_8639|52=20240823-04:57:04.137|56=DTL|11=60908|21=1|38=25|40=2|44=139.690701391855|54=2|55=MSFT|10=248|8=FIX.4.2|9=125|35=D|34=111|49=OPS_CANDIDATE_3_8639|52=20240823-04:57:04.438|56=DTL|11=32766|21=1|38=65|40=2|44=107.654765456141|54=2|55=BAC|10=136|8=FIX.4.2|9=126|35=D|34=112|49=OPS_CANDIDATE_3_8639|52=20240823-04:57:04.740|56=DTL|11=16536|21=1|38=93|40=2|44=134.757968539546|54=1|55=AAPL|10=239|8=FIX.4.2|9=126|35=D|34=113|49=OPS_CANDIDATE_3_8639|52=20240823-04:57:05.041|56=DTL|11=91265|21=1|38=26|40=2|44=137.364074734812|54=1|55=MSFT|10=239|8=FIX.4.2|9=126|35=D|34=114|49=OPS_CANDIDATE_3_8639|52=20240823-04:57:05.342|56=DTL|11=98895|21=1|38=52|40=2|44=135.999267613292|54=2|55=MSFT|10=018|8=FIX.4.2|9=80|35=A|34=115|49=OPS_CANDIDATE_3_8639|52=20240823-04:57:05.363|56=DTL|98=0|108=30|10=229|8=FIX.4.2|9=118|35=5|34=116|49=OPS_CANDIDATE_3_8639|52=20240823-04:57:05.390|56=DTL|58=MsgSeqNum too low, expecting 32 but received 1|10=189|8=FIX.4.2|9=80|35=A|34=117|49=OPS_CANDIDATE_3_8639|52=20240823-04:57:05.390|56=DTL|98=0|108=30|10=231|8=FIX.4.2|9=106|35=D|34=118|49=OPS_CANDIDATE_3_8639|52=20240823-04:57:05.644|56=DTL|11=13251|21=1|38=37|40=1|54=2|55=MSFT|10=018|8=FIX.4.2|9=125|35=D|34=119|49=OPS_CANDIDATE_3_8639|52=20240823-04:57:05.944|56=DTL|11=95204|21=1|38=79|40=2|44=126.013185582473|54=2|55=BAC|10=142|8=FIX.4.2|9=125|35=D|34=120|49=OPS_CANDIDATE_3_8639|52=20240823-04:57:06.245|56=DTL|11=62331|21=1|38=97|40=2|44=124.66670306206|54=2|55=MSFT|10=185|8=FIX.4.2|9=105|35=D|34=121|49=OPS_CANDIDATE_3_8639|52=20240823-04:57:06.547|56=DTL|11=5452|21=1|38=51|40=1|54=2|55=AAPL|10=194|8=FIX.4.2|9=106|35=D|34=122|49=OPS_CANDIDATE_3_8639|52=20240823-04:57:06.847|56=DTL|11=71805|21=1|38=43|40=1|54=2|55=AAPL|10=253|8=FIX.4.2|9=125|35=D|34=123|49=OPS_CANDIDATE_3_8639|52=20240823-04:57:07.149|56=DTL|11=89089|21=1|38=23|40=2|44=149.884715095444|54=2|55=BAC|10=156|8=FIX.4.2|9=125|35=D|34=124|49=OPS_CANDIDATE_3_8639|52=20240823-04:57:07.450|56=DTL|11=93886|21=1|38=83|40=2|44=148.237310532283|54=1|55=BAC|10=136|8=FIX.4.2|9=126|35=D|34=125|49=OPS_CANDIDATE_3_8639|52=20240823-04:57:07.751|56=DTL|11=97007|21=1|38=25|40=2|44=100.301907090102|54=1|55=MSFT|10=224|8=FIX.4.2|9=126|35=D|34=126|49=OPS_CANDIDATE_3_8639|52=20240823-04:57:08.052|56=DTL|11=78031|21=1|38=60|40=2|44=109.456486068761|54=1|55=AAPL|10=225|8=FIX.4.2|9=106|35=D|34=127|49=OPS_CANDIDATE_3_8639|52=20240823-04:57:08.353|56=DTL|11=81558|21=1|38=74|40=1|54=2|55=AAPL|10=006|8=FIX.4.2|9=103|35=F|34=128|49=OPS_CANDIDATE_3_8639|52=20240823-04:57:08.654|56=DTL|11=66520|38=98|41=2699|54=2|55=BAC|10=136|8=FIX.4.2|9=125|35=D|34=129|49=OPS_CANDIDATE_3_8639|52=20240823-04:57:08.655|56=DTL|11=14127|21=1|38=97|40=2|44=130.188175498448|54=2|55=BAC|10=155|8=FIX.4.2|9=106|35=D|34=130|49=OPS_CANDIDATE_3_8639|52=20240823-04:57:08.955|56=DTL|11=76704|21=1|38=39|40=1|54=1|55=MSFT|10=033|8=FIX.4.2|9=105|35=D|34=131|49=OPS_CANDIDATE_3_8639|52=20240823-04:57:09.256|56=DTL|11=85698|21=1|38=27|40=1|54=1|55=BAC|10=177|8=FIX.4.2|9=106|35=D|34=132|49=OPS_CANDIDATE_3_8639|52=20240823-04:57:09.557|56=DTL|11=24673|21=1|38=86|40=1|54=2|55=AAPL|10=007|8=FIX.4.2|9=125|35=D|34=133|49=OPS_CANDIDATE_3_8639|52=20240823-04:57:09.858|56=DTL|11=17591|21=1|38=73|40=2|44=116.515605031622|54=1|55=BAC|10=130|8=FIX.4.2|9=127|35=D|34=134|49=OPS_CANDIDATE_3_8639|52=20240823-04:57:10.159|56=DTL|11=14514|21=1|38=100|40=2|44=143.536611190656|54=2|55=MSFT|10=024|8=FIX.4.2|9=105|35=D|34=135|49=OPS_CANDIDATE_3_8639|52=20240823-04:57:10.460|56=DTL|11=7929|21=1|38=38|40=1|54=2|55=AAPL|10=204|8=FIX.4.2|9=126|35=D|34=136|49=OPS_CANDIDATE_3_8639|52=20240823-04:57:10.761|56=DTL|11=17175|21=1|38=75|40=2|44=101.873507323484|54=1|55=MSFT|10=247|8=FIX.4.2|9=105|35=D|34=137|49=OPS_CANDIDATE_3_8639|52=20240823-04:57:11.062|56=DTL|11=86384|21=1|38=87|40=1|54=1|55=BAC|10=170|8=FIX.4.2|9=125|35=D|34=138|49=OPS_CANDIDATE_3_8639|52=20240823-04:57:11.363|56=DTL|11=60613|21=1|38=58|40=2|44=108.26872314244|54=2|55=AAPL|10=164|8=FIX.4.2|9=105|35=D|34=139|49=OPS_CANDIDATE_3_8639|52=20240823-04:57:11.664|56=DTL|11=1157|21=1|38=52|40=1|54=2|55=MSFT|10=226|8=FIX.4.2|9=106|35=D|34=140|49=OPS_CANDIDATE_3_8639|52=20240823-04:57:11.965|56=DTL|11=90376|21=1|38=80|40=1|54=1|55=AAPL|10=254|8=FIX.4.2|9=126|35=D|34=141|49=OPS_CANDIDATE_3_8639|52=20240823-04:57:12.267|56=DTL|11=91170|21=1|38=32|40=2|44=134.014601925676|54=2|55=MSFT|10=236|8=FIX.4.2|9=105|35=F|34=142|49=OPS_CANDIDATE_3_8639|52=20240823-04:57:12.567|56=DTL|11=80473|38=86|41=24673|54=2|55=AAPL|10=008|8=FIX.4.2|9=106|35=D|34=143|49=OPS_CANDIDATE_3_8639|52=20240823-04:57:12.568|56=DTL|11=96414|21=1|38=100|40=1|54=1|55=BAC|10=209|8=FIX.4.2|9=105|35=D|34=144|49=OPS_CANDIDATE_3_8639|52=20240823-04:57:12.869|56=DTL|11=2301|21=1|38=83|40=1|54=1|55=AAPL|10=197|8=FIX.4.2|9=126|35=D|34=145|49=OPS_CANDIDATE_3_8639|52=20240823-04:57:13.170|56=DTL|11=39215|21=1|38=41|40=2|44=139.453671229416|54=1|55=AAPL|10=215|8=FIX.4.2|9=105|35=D|34=146|49=OPS_CANDIDATE_3_8639|52=20240823-04:57:13.471|56=DTL|11=28359|21=1|38=98|40=1|54=2|55=BAC|10=177|8=FIX.4.2|9=106|35=D|34=147|49=OPS_CANDIDATE_3_8639|52=20240823-04:57:13.772|56=DTL|11=33252|21=1|38=28|40=1|54=1|55=AAPL|10=251|